:020000040800F2
:10000000000002204D2B0008D12A0008DF2A00083A
:10001000E52A0008EB2A0008F12A00080000000089
:10002000000000000000000000000000B116000801
:10003000F72A000800000000F1180008052B00084E
:100040009D2B00089D2B00089D2B00089D2B000870
:100050009D2B00089D2B00089D2B00089D2B000860
:100060009D2B00089D2B00089D2B00089D2B000850
:100070009D2B00089D2B00089D2B00089D2B000840
:100080009D2B00089D2B00089D2B00089D2B000830
:100090009D2B00089D2B00089D2B00089D2B000820
:1000A0009D2B00089D2B00089D2B00089D2B000810
:1000B0009D2B00089D2B00089D2B00089D2B000800
:1000C0009D2B00089D2B00089D2B00089D2B0008F0
:1000D0009D2B00089D2B00089D2B00089D2B0008E0
:1000E0009D2B00089D2B00089D2B00089D2B0008D0
:1000F0009D2B00089D2B00089D2B00089D2B0008C0
:100100009D2B00089D2B00089D2B00089D2B0008AF
:100110009D2B00089D2B00089D2B00089D2B00089F
:100120009D2B00089D2B00089D2B00089D2B00088F
:100130009D2B00089D2B00089D2B00089D2B00087F
:100140009D2B00089D2B00089D2B00089D2B00086F
:100150009D2B00089D2B00089D2B00089D2B00085F
:100160009D2B00089D2B00089D2B00089D2B00084F
:100170009D2B00089D2B00089D2B0008000000000F
:080180009D2B00089D2B0008D7
:1001900010B5054C237833B9044B13B10448AFF3C1
:1001A00000800123237010BD10000020000000001B
:1001B000F82B000808B5034B1BB103490348AFF304
:1001C000008008BD0000000014000020F82B00088B
:1001D00053B94AB9002908BF00281CBF4FF0FF31AE
:1001E0004FF0FF3000F07AB9ADF1080C6DE904CEA4
:1001F00000F006F8DDF804E0DDE9022304B0704702
:100200002DE9F0478C460D460446089E002B51D13F
:100210008A4217466DD9B2FA82FEBEF1000F0BD0AA
:10022000CEF1200C01FA0EF520FA0CFC02FA0EF7C2
:100230004CEA050C00FA0EF44FEA174A250CBCFBF9
:10024000FAF81FFA87F90AFB18CC45EA0C4508FBB7
:1002500009F3AB420AD9ED1908F1FF3280F023818E
:10026000AB4240F22081A8F102083D44ED1AA4B24D
:10027000B5FBFAF00AFB105544EA054400FB09F906
:10028000A14509D9E41900F1FF3380F00A81A145A5
:1002900040F2078102383C44A4EB090440EA0840DC
:1002A0000021002E61D024FA0EF400233460736024
:1002B000BDE8F0878B4207D9002E54D0002186E894
:1002C00021000846BDE8F087B3FA83F1002940F029
:1002D0008E80AB4202D3824200F2FA80841A65EB30
:1002E00003050120AC46002E3FD086E81010BDE883
:1002F000F08712B90127B7FBF2F7B7FA87FEBEF114
:10030000000F34D1EB1B3A0C1FFA87FC0121B3FB21
:10031000F2F8250C02FB183345EA03450CFB08F301
:10032000AB4207D9ED1908F1FF3002D2AB4200F21F
:10033000D1808046ED1AA3B2B5FBF2F002FB105556
:1003400043EA05440CFB00FCA44507D9E41900F17D
:10035000FF3302D2A44500F2B8801846A4EB0C0487
:1003600040EA08409DE731463046BDE8F087CEF1CF
:10037000200405FA0EF307FA0EF720FA04F83A0CF7
:1003800025FA04F448EA0308B4FBF2F14FEA1845F1
:1003900002FB11441FFA87FC45EA044501FB0CF3FC
:1003A000AB4200FA0EF409D9ED1901F1FF3080F0EB
:1003B0008A80AB4240F2878002393D44EB1A1FFA33
:1003C00088F5B3FBF2F002FB103345EA034500FB6E
:1003D0000CF3AB4207D9ED1900F1FF386FD2AB42F5
:1003E0006DD902383D44EB1A40EA01418FE7C1F173
:1003F000200722FA07F88B4005FA01F448EA0303C4
:1004000020FA07FE4FEA134CFD404EEA040EB5FBFE
:10041000FCF94FEA1E440CFB19551FFA83F844EA15
:10042000054509FB08F4AC4202FA01F200FA01FAB0
:1004300008D9ED1809F1FF3043D2AC4241D9A9F1F6
:1004400002091D442D1B1FFA8EFEB5FBFCF00CFBB0
:1004500010554EEA054400FB08F8A04507D9E418FA
:1004600000F1FF3529D2A04527D902381C4440EAC3
:100470000940A4EB0804A0FB02894C45C6464D4642
:1004800015D312D056B1BAEB0E0364EB050404FA8F
:1004900007F7CB401F43CC40376074600021BDE8B4
:1004A000F0871846F8E69046E0E6C245EAD2B8EB97
:1004B000020E69EB03050138E4E72846D7E740461A
:1004C00091E78146BEE7014678E702383C4445E7BC
:1004D000084608E7A8F102083D442BE7704700BF33
:1004E00080B500AF0E4A0E4B1B6843F400731360D7
:1004F0000B4A0B4B1B6843F480631360084A084B9C
:100500001B6843F480731360032000F00BF90F2085
:1005100000F008F802F0B0FA0023184680BD00BFD2
:10052000003C024080B582B000AF7860124B1A6880
:10053000124B1B7819464FF47A73B3FBF1F3B2FBFD
:10054000F3F3184600F015F90346002B01D0012300
:100550000EE07B680F2B0AD8002279684FF0FF303D
:1005600000F0EBF8064A7B681360002300E00123EB
:1005700018460837BD4680BD0C000020040000204E
:100580000000002080B400AF064B1B781A46064BD3
:100590001B681344044A136000BFBD465DF8047B2A
:1005A000704700BF04000020CC3F002080B400AFA3
:1005B000034B1B681846BD465DF8047B704700BFBF
:1005C000CC3F002080B485B000AF78607B6803F03A
:1005D0000703FB600C4BDB68BB60BA684FF6FF0398
:1005E0001340BB60FB681A02BB68134343F0BF6350
:1005F00043F40033BB60044ABB68D36000BF1437C8
:10060000BD465DF8047B704700ED00E080B400AFAC
:10061000044BDB681B0A03F007031846BD465DF870
:10062000047B704700ED00E080B483B000AF034668
:100630003960FB7197F90730002B0ADB0D4997F9F8
:1006400007303A68D2B21201D2B20B4483F80023C9
:100650000AE00949FB7903F00F03043B3A68D2B280
:100660001201D2B20B441A7600BF0C37BD465DF8BA
:10067000047B704700E100E000ED00E080B489B049
:1006800000AFF860B9607A60FB6803F00703FB61B4
:10069000FB69C3F10703042B28BF0423BB61FB697B
:1006A0000433062B02D9FB69033B00E000237B6186
:1006B0000122BB6902FA03F35A1EBB681A407B6928
:1006C0009A4001217B6901FA03F3591E7B680B40B4
:1006D000134318462437BD465DF8047B704700007D
:1006E00080B582B000AF78607B68013BB3F1807F5A
:1006F00001D301230FE00A4A7B68013B53600F21BD
:100700004FF0FF30FFF790FF054B00229A60044B3B
:1007100007221A60002318460837BD4680BD00BF77
:1007200010E000E080B582B000AF78607868FFF735
:1007300049FF00BF0837BD4680BD80B586B000AF19
:100740000346B9607A60FB7300237B61FFF75EFFAD
:1007500078617A68B9687869FFF790FF024697F97F
:100760000F3011461846FFF75FFF00BF1837BD4630
:1007700080BD80B582B000AF78607868FFF7B0FFC9
:10078000034618460837BD4680BD000080B489B0D6
:1007900000AF7860396000237B6100233B61002358
:1007A000BB610023FB616BE10122FB6902FA03F3E9
:1007B0007B613B681A687B6913403B613A697B69DE
:1007C0009A4240F05A813B685B68012B0BD03B6832
:1007D0005B68022B07D03B685B68112B03D03B683A
:1007E0005B68122B30D17B689B68BB61FB695B0047
:1007F000032202FA03F3DB43BA691340BB613B688F
:10080000DA68FB695B0002FA03F3BA691343BB6160
:100810007B68BA699A607B685B68BB610122FB698F
:1008200002FA03F3DB43BA691340BB613B685B68C0
:100830001B0903F00102FB6902FA03F3BA691343CF
:10084000BB617B68BA695A607B68DB68BB61FB6926
:100850005B00032202FA03F3DB43BA691340BB6176
:100860003B689A68FB695B0002FA03F3BA691343B9
:10087000BB617B68BA69DA603B685B68022B03D0B6
:100880003B685B68122B23D1FB69DA087B6808326E
:1008900053F82230BB61FB6903F007039B000F2272
:1008A00002FA03F3DB43BA691340BB613B681A6980
:1008B000FB6903F007039B0002FA03F3BA691343D1
:1008C000BB61FB69DA087B680832B96943F822101A
:1008D0007B681B68BB61FB695B00032202FA03F3C0
:1008E000DB43BA691340BB613B685B6803F00302FA
:1008F000FB695B0002FA03F3BA691343BB617B68CF
:10090000BA691A603B685B6803F08053002B00F003
:10091000B4800023FB605F4A5E4B5B6C43F4804312
:1009200053645C4B5B6C03F48043FB60FB685A4A86
:10093000FB699B08023352F82330BB61FB6903F06B
:1009400003039B000F2202FA03F3DB43BA6913404F
:10095000BB617B68514A93422BD07B68504A9342DB
:1009600025D07B684F4A93421FD07B684E4A934202
:1009700019D07B684D4A934213D07B684C4A93420E
:100980000DD07B684B4A934207D07B684A4A93421A
:1009900001D107230EE008230CE006230AE005231B
:1009A00008E0042306E0032304E0022302E001231D
:1009B00000E00023FA6902F0030292009340BA6952
:1009C0001343BB613449FB699B080233BA6941F8A0
:1009D00023203A4B1B68BB613B69DB43BA69134078
:1009E000BB613B685B6803F48033002B03D0BA69BA
:1009F0003B691343BB61314ABB6913602F4B5B6892
:100A0000BB613B69DB43BA691340BB613B685B6810
:100A100003F40033002B03D0BA693B691343BB6175
:100A2000264ABB695360254B9B68BB613B69DB432E
:100A3000BA691340BB613B685B6803F48013002B09
:100A400003D0BA693B691343BB611C4ABB6993601D
:100A50001A4BDB68BB613B69DB43BA691340BB617E
:100A60003B685B6803F40013002B03D0BA693B6951
:100A70001343BB61114ABB69D360FB690133FB615E
:100A8000FB690F2B7FF690AE00BF2437BD465DF8A3
:100A9000047B7047003802400038014000000240EB
:100AA0000004024000080240000C02400010024016
:100AB0000014024000180240001C0240003C0140AB
:100AC00080B483B000AF78600B467B8013467B70A8
:100AD0007B78002B03D07A887B689A6103E07B885F
:100AE0001A047B689A6100BF0C37BD465DF8047B31
:100AF000704780B483B000AF78600B467B807B6822
:100B00005A697B881A407B889A4204D17B881A04F0
:100B10007B689A6102E07A887B689A6100BF0C3733
:100B2000BD465DF8047B704780B586B000AF786045
:100B30007B68002B01D101235BE27B681B6803F01B
:100B40000103002B75D0A34B9B6803F00C03042B0F
:100B50000CD0A04B9B6803F00C03082B12D19D4BCB
:100B60005B6803F48003B3F5800F0BD1994B1B68CE
:100B700003F40033002B5BD07B685B68002B57D1FC
:100B8000012336E27B685B68B3F5803F06D1914A6A
:100B9000904B1B6843F4803313601DE07B685B68F7
:100BA000B3F5A02F0CD18B4A8A4B1B6843F48023EA
:100BB0001360884A874B1B6843F4803313600BE053
:100BC000844A844B1B6823F480331360814A814B31
:100BD0001B6823F4802313607B685B68002B13D0B1
:100BE000FFF7E4FC386108E0FFF7E0FC02463B69F0
:100BF000D31A642B01D90323FBE1764B1B6803F462
:100C00000033002BF0D014E0FFF7D0FC386108E08F
:100C1000FFF7CCFC02463B69D31A642B01D90323AE
:100C2000E7E16C4B1B6803F40033002BF0D100E0CC
:100C300000BF7B681B6803F00203002B63D0654B89
:100C40009B6803F00C03002B0BD0624B9B6803F0F6
:100C50000C03082B1CD15F4B5B6803F48003002B53
:100C600016D15C4B1B6803F00203002B05D07B6898
:100C7000DB68012B01D00123BBE15649554B1B68B2
:100C800023F0F8027B681B69DB0013430B603AE03A
:100C90007B68DB68002B20D04F4B01221A60FFF7E6
:100CA00085FC386108E0FFF781FC02463B69D31AF6
:100CB000022B01D903239CE1464B1B6803F002037E
:100CC000002BF0D04349434B1B6823F0F8027B68AC
:100CD0001B69DB0013430B6015E03F4B00221A60D9
:100CE000FFF764FC386108E0FFF760FC02463B69EF
:100CF000D31A022B01D903237BE1364B1B6803F087
:100D00000203002BF0D17B681B6803F00803002B63
:100D100030D07B685B69002B16D0304B01221A6003
:100D2000FFF744FC386108E0FFF740FC02463B69EE
:100D3000D31A022B01D903235BE1264B5B6F03F02F
:100D40000203002BF0D015E0244B00221A60FFF7BD
:100D50002DFC386108E0FFF729FC02463B69D31AF5
:100D6000022B01D9032344E11A4B5B6F03F002030A
:100D7000002BF0D17B681B6803F00403002B00F00C
:100D8000A0800023FB75134B1B6C03F08053002BDA
:100D90000FD10023BB600F4A0E4B1B6C43F08053F6
:100DA00013640C4B1B6C03F08053BB60BB680123C6
:100DB000FB750B4B1B6803F48073002B21D1084A91
:100DC000074B1B6843F480731360FFF7EFFB386138
:100DD00011E000BF0038024000004742800E474249
:100DE00000700040FFF7E2FB02463B69D31A022B7A
:100DF00001D90323FDE0814B1B6803F48073002BB2
:100E0000F0D07B689B68012B06D17D4A7C4B1B6F21
:100E100043F0010313671CE07B689B68052B0CD132
:100E2000774A774B1B6F43F004031367744A744B84
:100E30001B6F43F0010313670BE0714A704B1B6F8C
:100E400023F0010313676E4A6D4B1B6F23F00403FD
:100E500013677B689B68002B15D0FFF7A7FB3861F1
:100E60000AE0FFF7A3FB02463B69D31A41F288323E
:100E7000934201D90323BCE0614B1B6F03F00203D3
:100E8000002BEED014E0FFF791FB38610AE0FFF78A
:100E90008DFB02463B69D31A41F28832934201D955
:100EA0000323A6E0564B1B6F03F00203002BEED189
:100EB000FB7D012B05D1524A514B1B6C23F0805313
:100EC00013647B689B69002B00F092804C4B9B68FD
:100ED00003F00C03082B5CD07B689B69022B41D18B
:100EE000484B00221A60FFF761FB386108E0FFF70A
:100EF0005DFB02463B69D31A022B01D9032378E03C
:100F00003F4B1B6803F00073002BF0D13C497B681A
:100F1000DA697B681B6A1A437B685B6A9B011A4328
:100F20007B689B6A5B08013B1B041A437B68DB6A96
:100F30001B0613434B60334B01221A60FFF736FB4D
:100F4000386108E0FFF732FB02463B69D31A022BF7
:100F500001D903234DE02A4B1B6803F00073002BDB
:100F6000F0D045E0274B00221A60FFF71FFB3861E5
:100F700008E0FFF71BFB02463B69D31A022B01D99D
:100F8000032336E01E4B1B6803F00073002BF0D1E7
:100F90002EE07B689B69012B01D1012329E0184BCE
:100FA0005B68FB60FB6803F480027B68DB699A4244
:100FB0001CD1FB6803F03F027B681B6A9A4215D183
:100FC000FA6847F6C07313407A68526A93420DD1AB
:100FD000FB6803F440327B689B6A9A4206D1FB6847
:100FE00003F070627B68DB6A9A4201D0012300E063
:100FF000002318461837BD4680BD00BF0070004072
:10100000003802406000474280B584B000AF78608D
:1010100039607B68002B01D10123CCE0684B1B6851
:1010200003F00F023B689A420CD2654B3A68D2B289
:101030001A70634B1B6803F00F023B689A4201D0A1
:101040000123B8E07B681B6803F00203002B20D06B
:101050007B681B6803F00403002B05D0594A594BE9
:101060009B6843F4E05393607B681B6803F00803BC
:10107000002B05D0534A534B9B6843F46043936065
:101080005049504B9B6823F0F0027B689B681343E8
:101090008B607B681B6803F00103002B44D07B68E6
:1010A0005B68012B07D1474B1B6803F40033002B0F
:1010B00019D101237FE07B685B68022B03D07B683A
:1010C0005B68032B07D13F4B1B6803F00073002BB9
:1010D00009D101236FE03B4B1B6803F00203002B97
:1010E00001D1012367E03749364B9B6823F00302A7
:1010F0007B685B6813438B60FFF758FAF8600AE07F
:10110000FFF754FA0246FB68D31A41F28832934241
:1011100001D903234FE02B4B9B6803F00C027B6843
:101120005B689B009A42EBD1254B1B6803F00F02D2
:101130003B689A420CD9224B3A68D2B21A70204BC3
:101140001B6803F00F023B689A4201D0012332E092
:101150007B681B6803F00403002B08D01949194B66
:101160009B6823F4E0527B68DB6813438B607B68E9
:101170001B6803F00803002B09D01249114B9B6830
:1011800023F460427B681B69DB0013438B6000F033
:1011900021F801460B4B9B681B0903F00F030A4A19
:1011A000D35C21FA03F3094A1360094B1B68184604
:1011B000FFF7B8F9002318461037BD4680BD00BFC1
:1011C000003C024000380240C42C00080C00002003
:1011D000000000202DE9F04F8FB000AF0023FB622C
:1011E00000237B630023BB6200233B63624B9B684D
:1011F00003F00C03042B07D0082B08D0002B40F081
:10120000B2805E4B3B63B1E05C4B3B63AEE05A4B5C
:101210005B6803F03F03FB62574B5B6803F480039A
:10122000002B4ED0544B5B689B094FF0000440F2FA
:10123000FF114FF0000201EA030102EA04020B462B
:10124000144660017862786A40EAD36078625B0194
:101250003B62D7E908345B1A64EB02044FEA841955
:1012600049EA93694FEA8318B8EB030869EB04096C
:101270004FEAC903FB61FB6943EA5873FB614FEA1C
:10128000C803BB61D7E9068918EB010849EB0209DD
:101290004FEA89237B617B6943EA98537B614FEA7C
:1012A00088233B61D7E9048940464946FB6A4FF0F1
:1012B00000041A462346FEF78BFF03460C467B6369
:1012C00043E02D4B5B689B094FF0000440F2FF1197
:1012D0004FF0000201EA030102EA04020B46144641
:1012E0006001F860F86840EAD360F8605B01BB60B9
:1012F000D7E902345B1A64EB0204A60146EA93665E
:101300009D01ED1A66EB0406F3007B607B6843EAFF
:1013100055737B60EB003B6097E860006D1846EB0F
:1013200002064FEA862B4BEA955B4FEA852A554623
:101330005E4628463146FB6A4FF000041A462346B3
:10134000FEF746FF03460C467B630B4B5B681B0CAA
:1013500003F0030301335B00BB627A6BBB6AB2FB31
:10136000F3F33B6302E0054B3B6300BF3B6B184666
:101370003C37BD46BDE8F08F003802400024F40041
:1013800080B485B000AF0346FB800023FB60B7F953
:101390000630842B05D0B7F90620FB6813440333CD
:1013A000FB60FB6818461437BD465DF8047B704748
:1013B00080B500AF00F0B8FE0023184680BDF0B540
:1013C00089B004AF786039607B685B69002B20D0FE
:1013D0007B689B69002B1CD07B685C687B681D6800
:1013E0007B681E697B68B3F908301846FFF7C8FFB1
:1013F00001467B685B697A68926902920193009169
:101400003B6832462946204600F0CAFC0346FB6092
:101410001CE07B685C687B681D687B681B699EB20A
:101420007B68B3F908301846FFF7AAFF024607F1B8
:101430000C03019300923B6832462946204600F097
:1014400009FD0346012B01D0002300E0FB6818468C
:101450001437BD46F0BD80B584B000AF78607B68BE
:10146000FB60FB68002B01D0FB6800E001231846FD
:1014700000F026FE002318461037BD4680BD80B41C
:1014800083B000AF78607B6803F108027B685A6024
:101490007B684FF0FF329A607B6803F108027B683B
:1014A000DA607B6803F108027B681A617B680022BE
:1014B0001A6000BF0C37BD465DF8047B704780B4EE
:1014C00083B000AF78607B6800221A6100BF0C37E0
:1014D000BD465DF8047B704780B485B000AF78608E
:1014E00039607B685B68FB603B68FA685A60FB6840
:1014F0009A683B689A60FB689B683A685A60FB6828
:101500003A689A603B687A681A617B681B685A1C63
:101510007B681A6000BF1437BD465DF8047B7047D6
:1015200080B485B000AF786039603B681B68BB60F1
:10153000BB68B3F1FF3F03D17B681B69FB600CE024
:101540007B680833FB6002E0FB685B68FB60FB685C
:101550005B681A68BB689A42F6D9FB685A683B68B0
:101560005A603B685B683A689A603B68FA689A60C0
:10157000FB683A685A603B687A681A617B681B6846
:101580005A1C7B681A6000BF1437BD465DF8047BA7
:10159000704780B485B000AF78607B681B69FB60E2
:1015A0007B685B687A6892689A607B689B687A68F7
:1015B00052685A60FB685A687B689A4203D17B681C
:1015C0009A68FB685A607B6800221A61FB681B6896
:1015D0005A1EFB681A60FB681B6818461437BD4624
:1015E0005DF8047B7047000080B485B000AFF86000
:1015F000B9607A60FB68043BFB60FB684FF0807267
:101600001A60FB68043BFB60BB6823F00102FB68C7
:101610001A60FB68043BFB600C4AFB681A60FB68BD
:10162000143BFB607A68FB681A60FB68043BFB6054
:10163000FB686FF002021A60FB68203BFB60FB68EE
:1016400018461437BD465DF8047B704751160008F4
:1016500080B485B000AF00237B60114B1B68B3F1F1
:10166000FF3F09D04FF0500383F31188BFF36F8F12
:10167000BFF34F8FFB60FEE74FF0500383F31188F9
:10168000BFF36F8FBFF34F8FBB6000BF7B68002B32
:10169000FCD000BF1437BD465DF8047B704700BF27
:1016A0000800002000000000000000000000000012
:1016B000074B19680868B0E8F04F80F30988BFF35A
:1016C0006F8F4FF0000080F311887047AFF30080F8
:1016D0004C3C002000BF00BF08480068006880F351
:1016E00008884FF0000080F3148862B661B6BFF33B
:1016F0004F8FBFF36F8F00DF00BF00BF08ED00E02A
:1017000080B586B000AF444B1B68444A934209D170
:101710004FF0500383F31188BFF36F8FBFF34F8FE8
:101720003B61FEE73C4B1B683D4A934209D14FF0B9
:10173000500383F31188BFF36F8FBFF34F8FFB60AC
:10174000FEE7384B7B617B691B78DBB27B607B6992
:10175000FF221A707B691B78DBB2FB70FB78DBB26F
:1017600003F05003DAB2304B1A70304B07221A6084
:1017700009E02E4B1B68013B2C4A1360FB78DBB25F
:101780005B00DBB2FB70FB78DBB203F08003802BE5
:10179000EFD0264B1B68C3F10703042B09D04FF091
:1017A000500383F31188BFF36F8FBFF34F8FBB607C
:1017B000FEE71E4B1B681B021C4A13601B4B1B6879
:1017C00003F4E063194A13607B68DAB27B691A702C
:1017D000174A174B1B6843F470031360144A144BE9
:1017E0001B6843F07043136000F0D6F8114B0022E1
:1017F0001A6000F0F5F8104A0F4B1B6843F04043A5
:101800001360FFF769FF00F04FFEFFF721FF002391
:1018100018461837BD4680BD00ED00E071C20F418B
:1018200070C20F4100E400E02C00002030000020D6
:1018300020ED00E00800002034EF00E080B483B029
:1018400000AF4FF0500383F31188BFF36F8FBFF3E6
:101850004F8F7B600E4B1B6801330D4A13600C4B9E
:101860001B68012B0ED10B4B1B68DBB2002B09D080
:101870004FF0500383F31188BFF36F8FBFF34F8F87
:101880003B60FEE700BF0C37BD465DF8047B704748
:101890000800002004ED00E080B483B000AF114BDD
:1018A0001B68002B09D14FF0500383F31188BFF35D
:1018B0006F8FBFF34F8F7B60FEE70A4B1B68013BC6
:1018C000084A1360074B1B68002B04D100233B60C0
:1018D0003B6883F3118800BF0C37BD465DF8047B7D
:1018E000704700BF0800002000000000000000005A
:1018F000EFF30980BFF36F8F154B1A681EF0100FBE
:1019000008BF20ED108A20E9F04F10602DE9090092
:101910004FF0500080F31188BFF34F8FBFF36F8FEC
:1019200000F0C2FD4FF0000080F3118809BC196877
:101930000868B0E8F04F1EF0100F08BFB0EC108A36
:1019400080F30988BFF36F8F704700BFAFF300804B
:101950004C3C002000BF00BF80B582B000AF4FF00C
:10196000500383F31188BFF36F8FBFF34F8F7B60FA
:1019700000F0E2FC0346002B03D0064B4FF08052F0
:101980001A6000233B603B6883F3118800BF08376F
:10199000BD4680BD04ED00E080B400AF0B4B0022DB
:1019A0001A600B4B00221A600A4A0B4B1B680B494A
:1019B000A1FB03139B09013B1360044B07221A6030
:1019C00000BFBD465DF8047B704700BF10E000E03B
:1019D00018E000E014E000E00C000020D34D62109D
:1019E000DFF80C00016841F470010160704700BF2E
:1019F00088ED00E080B58AB000AF78600023FB611D
:101A000000F0F0FB574B1B68002B01D100F00CF9E4
:101A1000554B1A687B681340002B40F08C807B6824
:101A2000002B1CD008227B6813447B607B6803F08A
:101A30000703002B13D07B6823F0070308337B6078
:101A40007B6803F00703002B09D04FF0500383F3AA
:101A50001188BFF36F8FBFF34F8F7B61FEE77B6809
:101A6000002B68D0414B1B687A689A4263D8404B80
:101A70003B623F4B1B687B6204E07B6A3B627B6A94
:101A80001B687B627B6A5A687B689A4203D27B6AD6
:101A90001B68002BF1D1334B1B687A6A9A424AD0FB
:101AA0003B6A1B6808221344FB617B6A1A683B6A25
:101AB0001A607B6A5A687B68D21A08235B009A42D4
:101AC0001ED97A6A7B681344BB61BB6903F00703C4
:101AD000002B09D04FF0500383F31188BFF36F8FB1
:101AE000BFF34F8F3B61FEE77B6A5A687B68D21A6F
:101AF000BB695A607B6A7A685A60B86900F0F6F888
:101B00001A4B1A687B6A5B68D31A184A1360174B22
:101B10001A68184B1B689A4203D2144B1B68154A6B
:101B200013607B6A5A68104B1B681A437B6A5A60C1
:101B30007B6A00221A6000F063FBFB6903F0070375
:101B4000002B09D04FF0500383F31188BFF36F8F40
:101B5000BFF34F8FFB60FEE7FB6918462837BD4691
:101B600080BD00BF3C3C0020483C0020403C0020A1
:101B7000343C0020443C002080B586B000AF786043
:101B80007B687B617B68002B46D008235B427A69C7
:101B900013447B617B693B613B695A68204B1B683E
:101BA0001340002B09D14FF0500383F31188BFF38A
:101BB0006F8FBFF34F8FFB60FEE73B691B68002B05
:101BC00009D04FF0500383F31188BFF36F8FBFF339
:101BD0004F8FBB60FEE73B695A68114B1B6813408F
:101BE000002B19D03B691B68002B15D13B695A6843
:101BF0000B4B1B68DB431A403B695A6000F0F2FA5A
:101C00003B695A68074B1B681344064A13603869DE
:101C100000F06CF800F0F4FA00BF1837BD4680BD44
:101C2000483C0020403C002080B485B000AF4FF419
:101C30007053BB60274BFB60FB6803F00703002B6E
:101C40000CD0FB680733FB60FB6823F00703FB60E5
:101C5000BA68FB68D31A1F4A1344BB60FB687B60F9
:101C60001D4A7B6813601C4B00225A607A68BB686F
:101C70001344FB600822FB689B1AFB60FB6823F09F
:101C80000703FB60FB68154A1360144B1B680022B6
:101C90005A60124B1B6800221A607B683B603B68ED
:101CA000FA68D21A3B685A600C4B1A683B681A6093
:101CB0003B685B680A4A13603B685B68094A1360CB
:101CC000094B4FF000421A6000BF1437BD465DF863
:101CD000047B704734000020343C00203C3C002052
:101CE000443C0020403C0020483C002080B485B0AB
:101CF00000AF7860284BFB6002E0FB681B68FB606C
:101D0000FB681A687B689A42F7D3FB68BB60FB6884
:101D10005B68BA681A447B689A4208D1FB685A68C3
:101D20007B685B681A44FB685A60FB687B607B6871
:101D3000BB607B685B68BA681A44FB681B689A42A0
:101D400018D1FB681A68154B1B689A420DD07B6846
:101D50005A68FB681B685B681A447B685A60FB68BA
:101D60001B681A687B681A6008E00C4B1A687B686D
:101D70001A6003E0FB681A687B681A60FA687B687F
:101D80009A4202D0FB687A681A6000BF1437BD46D9
:101D90005DF8047B704700BF343C00203C3C0020D1
:101DA00080B58EB004AFF860B9607A603B607B6B41
:101DB000002B09D14FF0500383F31188BFF36F8FCD
:101DC000BFF34F8F3B62FEE7BB6B002B09D14FF097
:101DD000500383F31188BFF36F8FBFF34F8FFB6105
:101DE000FEE754233B613B69542B09D04FF050036D
:101DF00083F31188BFF36F8FBFF34F8FBB61FEE793
:101E00003B69BB6B002B1ED07B6B002B1BD0BB6BCD
:101E10007B627B6A7A6B1A637B6A022283F85120A9
:101E2000002303937B6A029307F1140301933B6B36
:101E300000933B687A68B968F86800F050F8786AEF
:101E400000F0D4F801E000237B617B691846283755
:101E5000BD4680BD80B58CB004AFF860B9603B6012
:101E60001346FB80FB889B001846FFF7C3FD786193
:101E70007B69002B0ED05420FFF7BCFDF861FB6995
:101E8000002B03D0FB697A691A6305E07869FFF7D4
:101E900073FE01E00023FB61FB69002B17D0FB6997
:101EA000002283F85120FA8800230393FB690293F0
:101EB000FB6A0193BB6A00933B68B968F86800F05D
:101EC0000EF8F86900F092F80123BB6102E04FF0D0
:101ED000FF33BB61BB6918462037BD4680BD80B566
:101EE00088B000AFF860B9607A603B603B6B1A6BFA
:101EF0007B6803F18043013B9B001344BB61BB69DA
:101F000023F00703BB61BB6903F00703002B09D073
:101F10004FF0500383F31188BFF36F8FBFF34F8FE0
:101F20007B61FEE7BB68002B1FD00023FB6112E042
:101F3000BA68FB69134419783A6BFB69134434336C
:101F40000A461A70BA68FB6913441B78002B06D046
:101F5000FB690133FB61FB690F2BE9D900E000BF8E
:101F60003B6B002283F8432003E03B6B002283F8A5
:101F70003420BB6A062B01D90623BB623B6BBA6ACD
:101F8000DA623B6BBA6A5A643B6B00229A643B6B21
:101F900004331846FFF793FA3B6B18331846FFF7E4
:101FA0008EFA3B6B3A6B1A61BB6AC3F107023B6B5B
:101FB0009A613B6B3A6B5A623B6B0022DA643B6B73
:101FC000002283F850203A68F968B869FFF70CFBE3
:101FD00002463B6B1A60FB6A002B02D0FB6A3A6B2D
:101FE0001A6000BF2037BD4680BD000080B582B0BA
:101FF00000AF7860FFF722FC2A4B1B680133294AA7
:102000001360294B1B68002B09D1274A7B6813609A
:10201000244B1B68012B10D100F0B8FA0DE0234BC4
:102020001B68002B09D1204B1B68DA6A7B68DB6ACE
:102030009A4202D81C4A7B6813601D4B1B6801330F
:102040001B4A13607B68DB6A01229A40194B1B68AC
:102050001343184A13607B68DA6A13469B001344E3
:102060009B00154A1A447B68043319461046FFF753
:1020700033FAFFF711FC0D4B1B68002B0ED00A4BF7
:102080001B68DA6A7B68DB6A9A4207D20B4B4FF017
:1020900080521A60BFF34F8FBFF36F8F00BF0837B6
:1020A000BD4680BD4C3D00204C3C0020583D0020EA
:1020B000683D0020543D0020503C002004ED00E02D
:1020C00080B584B000AF78600023FB607B68002B94
:1020D00016D0134B1B68002B09D04FF0500383F32D
:1020E0001188BFF36F8FBFF34F8FBB60FEE700F027
:1020F00079F80021786800F021FB00F081F8F860A1
:10210000FB68002B07D1074B4FF080521A60BFF3DA
:102110004F8FBFF36F8F00BF1037BD4680BD00BF2C
:10212000743D002004ED00E080B58AB004AF0023C8
:10213000BB6000237B603A46391D07F1080318464F
:1021400000F062FB39687B68BA6802920193002351
:10215000009300230A461D491D48FFF721FE024651
:102160001C4B1A601B4B1B68002B02D001237B61A8
:1021700001E000237B617B69012B15D14FF05003F7
:1021800083F31188BFF36F8FBFF34F8F3B61124B07
:102190004FF0FF321A60114B01221A60104B0022DF
:1021A0001A60FFF7ADFA0DE07B69B3F1FF3F09D18B
:1021B0004FF0500383F31188BFF36F8FBFF34F8F3E
:1021C000FB60FEE700BF1837BD4680BD102C00083D
:1021D0005D250008703D00206C3D0020583D00202A
:1021E000503D002080B400AF044B1B680133034A0C
:1021F000136000BFBD465DF8047B7047743D00204E
:1022000080B584B000AF0023FB600023BB60414B6E
:102210001B68002B09D14FF0500383F31188BFF3E3
:102220006F8FBFF34F8F3B60FEE7FFF707FB394B24
:102230001B68013B374A1360364B1B68002B61D18A
:10224000354B1B68002B5DD02EE0344BDB68DB6820
:10225000FB60FB6818331846FFF79BF9FB680433F3
:102260001846FFF796F9FB68DB6A01229A402C4B6F
:102270001B6813432A4A1360FB68DA6A13469B0003
:1022800013449B00274A1A44FB680433194610463E
:10229000FFF722F9FB68DA6A234B1B68DB6A9A4274
:1022A00002D3224B01221A601C4B1B68002BCCD19D
:1022B000FB68002B01D000F003FA1D4B1B687B600C
:1022C0007B68002B10D000F037F80346002B02D0BB
:1022D000164B01221A607B68013B7B607B68002BF8
:1022E000F1D1134B00221A60104B1B68002B09D050
:1022F0000123BB600F4B4FF080521A60BFF34F8F2A
:10230000BFF36F8FFFF7C8FABB6818461037BD469A
:1023100080BD00BF743D00204C3D00200C3D0020DE
:10232000543D0020503C00204C3C0020603D0020EB
:102330005C3D002004ED00E080B586B000AF0023D6
:102340007B614E4B1B68002B40F087804C4B1B6819
:1023500001333B614A4A3B6913603B69002B1FD143
:10236000484B1B681B68002B09D04FF0500383F3C8
:102370001188BFF36F8FBFF34F8F3B60FEE7414B78
:102380001B68FB60404B1B683E4A13603E4AFB687B
:1023900013603E4B1B6801333C4A136000F090F918
:1023A0003B4B1B683A699A4248D3364B1B681B6803
:1023B000002B04D1364B4FF0FF321A603EE0314B18
:1023C0001B68DB68DB68BB60BB685B687B603A6985
:1023D0007B689A4203D22E4A7B6813602EE0BB686A
:1023E00004331846FFF7D5F8BB689B6A002B04D06E
:1023F000BB6818331846FFF7CCF8BB68DB6A0122CC
:102400009A40244B1B681343224A1360BB68DA6A64
:1024100013469B0013449B001F4A1A44BB680433B5
:1024200019461046FFF758F8BB68DA6A1B4B1B6861
:10243000DB6A9A42B9D301237B61B6E7174B1B686D
:10244000DA6A154913469B0013449B000B441B6832
:10245000012B07D901237B6104E0114B1B68013379
:102460000F4A13600F4B1B68002B01D001237B61C7
:102470007B6918461837BD4680BD00BF743D0020FB
:10248000503D0020043D0020083D0020643D002018
:102490006C3D0020543D0020503C00204C3C00206E
:1024A0005C3D0020603D002080B487B000AF264B2B
:1024B0001B68002B03D0254B01221A603EE0234B02
:1024C00000221A60224B1B68FB60FB68B3FA83F39F
:1024D000FB72FB7AC3F11F037B611E497A691346C5
:1024E0009B0013449B000B441B68002B09D14FF049
:1024F000500383F31188BFF36F8FBFF34F8F7B605F
:10250000FEE77A6913469B0013449B00114A13446B
:102510003B613B695B685A683B695A603B695A6832
:102520003B6908339A4204D13B695B685A683B694E
:102530005A603B695B68DB68074A136000BF1C3761
:10254000BD465DF8047B7047743D0020603D00206F
:10255000543D0020503C00204C3C002080B582B00F
:1025600000AF786000F052F8064B1B68012BF9D9D8
:10257000054B4FF080521A60BFF34F8FBFF36F8F40
:10258000F0E700BF503C002004ED00E080B582B0D1
:1025900000AF00237B600CE07A6813469B00134475
:1025A0009B00124A13441846FEF769FF7B6801330B
:1025B0007B607B68062BEFD90D48FEF760FF0D4866
:1025C000FEF75DFF0C48FEF75AFF0C48FEF757FF79
:1025D0000B48FEF754FF0B4B054A1A600A4B054A9D
:1025E0001A6000BF0837BD4680BD00BF503C0020C8
:1025F000DC3C0020F03C00200C3D0020203D002071
:10260000383D0020043D0020083D002080B582B008
:1026100000AF19E0FFF712F90F4BDB68DB687B6056
:102620007B6804331846FEF7B4FF0C4B1B68013B74
:102630000A4A13600A4B1B68013B094A1360FFF703
:102640002BF9786800F00EF8054B1B68002BE1D1E0
:1026500000BF0837BD4680BD203D00204C3D002016
:10266000343D002080B584B000AF78607B6893F87B
:102670005130002B08D17B681B6B1846FFF77CFAA2
:102680007868FFF779FA17E07B6893F85130012BEF
:1026900003D17868FFF770FA0EE07B6893F8513049
:1026A000022B09D04FF0500383F31188BFF36F8FD3
:1026B000BFF34F8FFB60FEE700BF1037BD4680BD04
:1026C00080B483B000AF0C4B1B681B68002B04D197
:1026D0000A4B4FF0FF321A6008E0074B1B68DB68BB
:1026E000DB687B607B685B68044A136000BF0C3763
:1026F000BD465DF8047B7047043D00206C3D002022
:1027000080B483B000AF0B4B1B68002B02D10123B8
:102710007B6008E0084B1B68002B02D102237B6022
:1027200001E000237B607B6818460C37BD465DF8EE
:10273000047B7047583D0020743D002080B584B074
:1027400000AF78603960294B1B68FB60284B1B6821
:1027500004331846FEF71DFF0346002B0BD1244B14
:102760001B68DB6A012202FA03F3DA43214B1B6880
:102770001340204A13607B68B3F1FF3F0AD13B68E6
:10278000002B07D01A4B1B68043319461A48FEF772
:10279000A3FE26E0FA687B681344BB60144B1B68F9
:1027A000BA685A60BA68FB689A4209D2134B1A6831
:1027B0000F4B1B68043319461046FEF7B1FE10E0BC
:1027C0000F4B1A680A4B1B68043319461046FEF774
:1027D000A7FE0C4B1B68BA689A4202D2094ABB6832
:1027E000136000BF1037BD4680BD00BF503D0020C4
:1027F0004C3C0020543D0020383D0020083D002086
:10280000043D00206C3D002080B485B000AFF8602E
:10281000B9607A60FB68074A1A60BB68064A1A60AA
:102820007B6880221A6000BF1437BD465DF8047BC8
:10283000704700BF783D0020CC3D0020B0B59CB073
:1028400000AFFDF74DFE00F05DF800F099F8284B61
:1028500007F154041D460FCD0FC495E8070084E826
:10286000070007F1540300211846FEF7A8FD0246B1
:10287000204B1A60204B07F138041D460FCD0FC4C2
:1028800095E8070084E8070007F13803002118469F
:10289000FEF795FD0246174B1A60184B07F11C0412
:1028A0001D460FCD0FC495E8070084E8070007F127
:1028B0001C0300211846FEF782FD02460D4B1A60EC
:1028C0000F4B3C461D460FCD0FC495E8070084E82A
:1028D00007003B4600211846FEF771FD0246054BF6
:1028E0001A60FEF765FD002318467037BD46B0BD7F
:1028F000242C0008D03F0020502C00087C2C00081D
:10290000A82C000880B592B000AF07F11803302260
:102910000021184600F068F93B1D00221A605A6039
:102920009A60DA601A610123BB614FF48033FB6166
:1029300001237B6200233B6307F118031846FEF76F
:10294000F3F80346002B01D000F08EF80F237B60D4
:102950000123BB600023FB604FF480533B610023E5
:102960007B613B1D00211846FEF74EFB0346002B02
:1029700001D000F079F800BF4837BD4680BD0000A7
:1029800080B586B000AF3B1D00221A605A609A6085
:10299000DA601A6100233B60114A114B1B6B43F054
:1029A000080313630E4B1B6B03F008033B603B688B
:1029B0004FF470437B600123BB600023FB60002366
:1029C0003B613B1D19460748FDF7E0FE00224FF42E
:1029D00070410448FEF774F800BF1837BD4680BD4B
:1029E00000380240000C024080B582B000AF786031
:1029F0004FF400410348FEF77CF86420FEF72BFDFE
:102A0000F6E700BF000C024080B582B000AF7860EE
:102A10004FF480410348FEF76CF86420FEF71BFD7D
:102A2000F6E700BF000C024080B582B000AF7860CE
:102A30004FF400510348FEF75CF86420FEF70BFDED
:102A4000F6E700BF000C024080B582B000AF7860AE
:102A50004FF480510348FEF74CF86420FEF7FBFC6E
:102A6000F6E700BF000C024080B400AF00BFBD46D7
:102A70005DF8047B7047000080B582B000AF002392
:102A80007B60124A114B5B6C43F4804353640F4BE1
:102A90005B6C03F480437B607B6800233B600B4AE4
:102AA0000A4B1B6C43F080531364084B1B6C03F000
:102AB00080533B603B6800220F216FF00100FDF75F
:102AC0003CFE00BF0837BD4680BD00BF0038024055
:102AD00080B400AF00BFBD465DF8047B704780B492
:102AE00000AFFEE780B400AFFEE780B400AFFEE7C2
:102AF00080B400AFFEE780B400AF00BFBD465DF814
:102B0000047B704780B500AFFDF73CFDFFF7F8FD93
:102B10000346012B01D0FEF71FFF00BF80BD000060
:102B200080B400AF084A084BD3F8883043F47003F0
:102B3000C2F88830044B4FF000629A6000BFBD4677
:102B40005DF8047B704700BF00ED00E0DFF834D093
:102B5000002103E00C4B5B58435004310B480C4BF5
:102B600042189A42F6D30B4A02E0002342F8043B93
:102B7000094B9A42F9D3FFF7D3FF00F011F8FFF7A2
:102B80005DFE704700000220E42C000800000020D9
:102B90001000002010000020D43F0020FEE70000BD
:102BA00070B50D4E0D4CA41BA4100025A54209D1F3
:102BB0000B4E0C4C00F020F8A41BA4100025A542DD
:102BC00005D170BD56F8253098470135EEE756F827
:102BD000253098470135F2E7DC2C0008DC2C000892
:102BE000DC2C0008E02C000802440346934200D18C
:102BF000704703F8011BF9E7F8B500BFF8BC08BC43
:102C00009E467047F8B500BFF8BC08BC9E467047AA
:102C100049444C450000000064656661756C74545D
:102C200061736B00182C0008E929000800000000FF
:102C30000100000080000000000000000000000013
:102C400064656661756C745461736B5F310000007C
:102C5000402C0008092A00080000000001000000C4
:102C60008000000000000000000000006465666154
:102C7000756C745461736B5F320000006C2C00083B
:102C8000292A000800000000010000008000000068
:102C9000000000000000000064656661756C7454FB
:102CA00061736B5F33000000982C0008492A00080C
:102CB0000000000001000000800000000000000093
:102CC00000000000000000000000000001020304FA
:042CD00006070809E2
:082CD4002CD5FF7F0100000078
:042CDC00B501000836
:042CE0009101000856
:102CE4001000000001000000AAAAAAAA0024F4000F
:0400000508002B4D77
:00000001FF
